:020000040800F2
:100000005018002049E10108050400080704000811
:100010000B0400080F04000813040008000000008F
:1000200000000000000000000000000017040008AD
:1000300019040008000000001B0400081D0400084B
:1000400063E1010863E1010863E1010863E101087C
:1000500063E1010863E1010863E1010863E101086C
:1000600063E1010863E1010863E1010863E101085C
:1000700063E1010863E1010863E1010863E101084C
:1000800063E1010863E1010863E1010863E101083C
:1000900063E1010863E1010863E1010863E101082C
:1000A00063E1010863E1010863E1010863E101081C
:1000B00063E1010863E1010863E1010863E101080C
:1000C00063E1010863E1010863E1010863E10108FC
:1000D00063E10108B741010863E1010863E1010838
:1000E00063E1010863E1010863E1010863E10108DC
:1000F00063E1010863E1010863E1010863E10108CC
:1001000063E1010863E1010863E1010863E10108BB
:1001100063E1010863E1010863E101084317010895
:1001200063E1010863E1010863E1010863E101089B
:1001300063E1010863E1010863E1010863E101088B
:1001400063E1010863E1010863E1010863E101087B
:1001500063E1010863E1010863E1010863E101086B
:1001600063E1010863E1010863E1010863E101085B
:1001700063E1010863E1010863E1010863E101084B
:1001800063E10108DFF80CD01EF0F0F900480047E9
:10019000DD020008501800203EB504460121102061
:1001A0001BF057FA4EF65F20ADF80000601E01907C
:1001B0000020ADF802008DF80A00694684481AF064
:1001C000EAFA012182481AF09BFF012180481AF0C7
:1001D0006BFB3EBD10B57D201BF0A7F810B90120C8
:1001E00011F092FA1BF025FB45F255501CF04EF829
:1001F00003201CF04EF840F6FF701CF04DF81CF088
:100200004EF81CF051F810BD1CB501208DF804000B
:1002100002208DF8050000208DF806008DF80700FB
:1002200049F2F000009069466A481AF047F941F235
:1002300007000090694668481AF040F941F238001A
:100240000090694665481AF039F90C20009069461B
:1002500063481AF033F938200090694661481AF073
:100260002DF94FF6FF00009069465F481AF026F915
:1002700047F6FD40009069465C481AF01FF94FF4BC
:10028000004154481AF09FF9002153481AF09BF995
:100290004FF4805151481AF096F9002150481AF055
:1002A00092F920214F481AF08EF900214E481AF099
:1002B0008AF900214D481AF086F901204C4908605E
:1002C0004C49C1F88802002147481AF07CF9002007
:1002D000474908604749C1F888021CBD00F0A0F8F2
:1002E0004FF4FA7000F0B8F801217F201BF07EF97E
:1002F000012108071BF0ADF9FFF786FF4FF4FA70F4
:1003000000F0AAF801203C4908603C49C1F88C0281
:1003100040F6C41000F0A0F816F00FFD19F06BFACB
:1003200010F0DCFC12F0AEFA00F012F912F098FCBA
:1003300011F019FA14F030F811F0C7FD11F077F947
:1003400013F0B7FF10F0AEFF11F097F94FF47A7089
:1003500000F082F8FFF73EFF4FF4FA7000F07CF8EF
:100360006420FFF719FF31E000202549087011F0E3
:10037000FEFF11F046FD12F0E7FA00F0A5F810F0CC
:100380003AFD11F0BBFC12F004FF11F076F911F008
:1003900021FA19F08FFA11F00EFB12F093FD19F00B
:1003A00091FE19F01EFF13F0BCFE15F002FC09F0DF
:1003B000ABFC1BF074FF00BF012105481AF097FE4B
:1003C0000128F9D1012102481AF09AFECCE7000079
:1003D00000100040000002400004024000080240FB
:1003E000000C0240001002400014024000180240BD
:1003F0008C824142008041429C02434200004342C1
:1004000003000020704700BFFEE700BFFEE700BF0B
:10041000FEE700BFFEE77047704770477047000077
:100420001FB56FF004001DF081FD68461BF049F810
:100430000198C0082149B0FBF1F021490860084645
:10044000006800EB4001C1EBC0104FF6FF7101EAFC
:10045000C0001C4908801FBD1A4909884143491E34
:100460004FF0E0225161002191610121116100BF33
:100470004FF0E021096901F480310029F8D0002112
:100480004FF0E0221161916170470D4909684143C5
:10049000491E4FF0E022516100219161012111615B
:1004A00000BF4FF0E021096901F480310029F8D044
:1004B00000214FF0E02211619161704740420F002E
:1004C00004000020080000203CB500210022002389
:1004D0000093019300BF13E01346541CA2B25F4C7B
:1004E00034F81330009D2B4400931346541CA2B2E1
:1004F0005A4C34F81330019D2B4401934B1C99B294
:100500004029E9DB009BC3F38F13554C2380019BEB
:10051000C3F38F13638023461B88A3F2E9239B0058
:10052000772493FBF4F318B2002800DA00204D4C36
:1005300020804B4B5B88A3F2E9239B00772493FB3D
:10054000F4F318B2002800DA0020474C20803CBDAC
:1005500000B59BB0012188021BF08CF801218805B1
:100560001BF044F84FF4C0600F9003208DF840005A
:1005700000208DF843000FA93C4819F09FFF3C482C
:100580001BF0A4FE4FF0806000903A480190334881
:1005900002900020039080200490002005904FF4EA
:1005A00080600690400007908000089040110990FC
:1005B00040020A9000200B9001200C9000200D902A
:1005C0000E9069462A481BF023FF012128481BF0A2
:1005D00059FF1CF037FC002011904FF4803012902E
:1005E000002013904FF47060149011A81CF064FC6C
:1005F0000020159001208DF858008DF8590000203A
:1006000017901890199002208DF8680015A91948C4
:100610004C381CF022FC06230122072115484C38D7
:100620001CF0A1FC06230222082112484C381CF0C1
:100630009AFC01210F484C381CF040FD01210D4867
:100640004C381CF030FD01210A484C381CF04BFCA2
:1006500008484C381CF0E3FC1BB000BDB40200207D
:100660000A0000200E0000201000002000140240AC
:10067000106402404C22014070B50446F8480078EE
:10068000E0B94FF6FF7000EA4404002511E004F4DD
:10069000004020B1F348008810F0F2FC03E0F2487B
:1006A000008810F0EDFC4FF6FF7000EA4404681C6F
:1006B000C5B2EE4800788542E9DB14E000250EE083
:1006C00004F0010020B1E748008810F0D9FC03E0F5
:1006D000E548008810F0D4FC6410681CC5B2E348FB
:1006E00000788542ECDB70BD2DE9F04706460F46E9
:1006F00090469946089DDE4800783844401E83B2F3
:10070000DA4800783044401E82B23946304610F054
:10071000BAFCA5F12000C5B2D248A0F80080D248AA
:10072000A0F8009000241CE0CD48007838B9D148EA
:1007300000EB451030F814001FFA80FA0CE0C848AE
:100740000078012808D105EB4500CB4901EB0010EA
:1007500030F814001FFA80FA5046FFF78DFF601C36
:1007600084B2C34800788442DEDBBDE8F08710B570
:100770000246012000E050430B1EA1F10104E1B24A
:10078000F9D110BD2DE9FF4F81B00446884691464E
:10079000DDE90F7A4FF0000B002546E0781B401E84
:1007A000C1B20A20FFF7E3FF0E99B1FBF0F00A2176
:1007B000B0FBF1F201FB1206BAF1000F0ED106F107
:1007C0003000C0B200904A4641462046049BFFF7E5
:1007D0008BFFA6480078204484B223E0BBF1000FD1
:1007E00012D1781EA8420FDD66B9202000904A463B
:1007F00041462046049BFFF777FF9C480078204441
:1008000084B210E04FF0010B06F13000C0B200904E
:100810004A4641462046049BFFF766FF934800780E
:10082000204484B200BF681CC5B2BD42B6DB05B02F
:10083000BDE8F08F2DE9FF4F81B006468946DDE91E
:100840000FAB0E9C002729E02578641C252D1AD1BA
:10085000ABEB0700401EC1B20A20FFF788FFBAFBCE
:10086000F0F00A21B0FBF1F201FB1208781CC7B2CC
:1008700008F13000C0B2009049463046DDE903235C
:10088000FFF732FF06E0009549463046DDE90323D5
:10089000FFF72AFF75480078304486B22078002898
:1008A000D2D105B0BDE8F08F2DE9F84305460F46DB
:1008B00090469946089C0CE02678641C4B464246BC
:1008C000394628460096FFF70FFF6848007828440D
:1008D00085B220780028EFD1BDE8F8836049087020
:1008E00030B90B21614A11701021614A117007E083
:1008F000012805D110215D4A117018215C4A117040
:1009000070470EB50020FFF7E9FF002002215B4A87
:1009100012784DF29A63CDE90021029002460A2135
:1009200040F25520FFF72EFF00210220544A127892
:100930004DF29A63CDE9002002910A460A2140F265
:100940007620FFF71FFF002102204E4A12784DF259
:100950009A63CDE9002002910A460A2140F29720CD
:10096000FFF710FF00210220474A12784DF29A63E8
:10097000CDE9002002910A460A2140F2C320FFF788
:1009800001FF00210220414A12784DF29A63CDE91D
:10099000002002910A460A214FF43970FFF7F2FE57
:1009A000002002213A4A12784DF29A63CDE90021E3
:1009B000029002460A2140F20530FFF7E3FE0320D1
:1009C0003449098834A24DF29A63CDE9002102909E
:1009D000002232214FF43170FFF72CFF30480078AD
:1009E000012826D12F480078142813D12EA04DF2CB
:1009F0009A630022462100904FF42670FFF754FFBF
:100A00002BA04DF29A6300224621009040F2FB2079
:100A1000FFF74AFF0320274909881FA24DF29A6376
:100A2000CDE900210290002246214FF43170FFF7FA
:100A300001FF2148B0F90000F0283FDD012104202A
:100A40001D4AB2F900204DF29A63CDE900200291CF
:100A500000221E2140F2B920FFF794FE6DE0000055
:100A600071000020160000201400002072000020F9
:100A700073000020C4F80108F4E60108CC0000204F
:100A8000CE000020CF000020D0000020D1000020A8
:100A9000D20000200E000020252E25250000000099
:100AA00044000020000000205072323A0000000094
:100AB0006261720010000020EC000020FE48B0F9D6
:100AC0000000F02815DCFC48B0F90000002810DB1D
:100AD00001210420F84AB2F900204DF29A63CDE9D1
:100AE000002002911F221E2140F2B920FFF74AFE8A
:100AF00023E00321F0480088404280B2EFA24DF28B
:100B00009A63CDE9002002914FF478421E2140F211
:100B1000B920FFF78FFE01210322E748B0F900005A
:100B200040424DF29A63CDE9012100904FF47842A2
:100B30001E214FF43170FFF725FE0EBD38B5044677
:100B400044BBDFA04DF29A6300221E2100904FF4B7
:100B5000AF70FFF7A9FEDB4835234FF4D7721C2195
:100B6000009040F2951010F0BCFCD7A04DF29A63B3
:100B700000221E2100904FF4E670FFF795FED34847
:100B800035234FF407721C21009040F2032010F02F
:100B9000A8FC27E0CAA04DF29A6300221E21009013
:100BA0004FF4AF70FFF780FEC84835234FF4D7727B
:100BB0001C21009040F2951010F093FCC2A04DF261
:100BC0009A6300221E2100904FF4E670FFF76CFE3E
:100BD000BC4835234FF407721C21009040F20320DB
:100BE00010F07FFC38BDFEB504460D4616461F4684
:100BF00037B1012F2BD0022F3BD0032F72D15FE0F2
:100C00000020022105F14602CDE90061029091B277
:100C100004F1240290B24DF29A634FF47842FFF748
:100C2000B1FD4FF4784005F15A0C1FFA8CF304F132
:100C3000340C1FFA8CF205F1580C1FFA8CF104F1F8
:100C4000320C00901FFA8CF010F042FA4AE00120BA
:100C5000022105F14602CDE90061029091B204F152
:100C6000240290B24DF29A634FF47842FFF78AFD66
:100C700038E00020032105F14602CDE90061029031
:100C800091B204F11C0290B24DF29A634FF4784293
:100C9000FFF778FD4FF4784005F15A0C1FFA8CF3FA
:100CA00004F13C0C1FFA8CF205F1580C1FFA8CF180
:100CB00004F13A0C00901FFA8CF010F009FA11E0E0
:100CC0000120032105F14602CDE90061029091B2B5
:100CD00004F11C0290B24DF29A634FF47842FFF790
:100CE00051FD00BF00BFFEBD10B50120FFF7F6FDAE
:100CF0000023774802885021B920FFF774FF0023B2
:100D000074480288502140F24F10FFF76CFF012316
:100D1000714802884FF48C712320FFF764FF03238E
:100D20006E4802884FF48C71B920FFF75CFF0023F6
:100D30006B4802884FF48C7140F24F10FFF753FF5D
:100D400001236848028850212320FFF74CFF6649A1
:100D50000878FFF7F3FE10BD10B50120FFF7BEFDC8
:100D600000235B48028850212320FFF73CFF00232B
:100D7000584802885021B920FFF735FF0123594810
:100D80000288502140F24F10FFF72DFF01235248F7
:100D900002884FF48C712320FFF725FF03234F486F
:100DA00002884FF48C71B920FFF71DFF00234C48D7
:100DB00002884FF48C7140F24F10FFF714FF10BD02
:100DC000F8B505460C46494804F16F06B3B205F183
:100DD0001106B2B2A1B20090A8B210F082FB444852
:100DE00004F16F06B3B205F16306B2B2A1B2513E8F
:100DF0000090B0B210F048FB3E4804F16F06B3B269
:100E000005F17506B2B2A1B2113E0090B0B210F079
:100E100068FBF8BDF8B504460D4629462046FFF7A5
:100E2000CFFF354805F13D06B3B204F15906B2B221
:100E300005F10E06B1B204F11C060090B0B210F03C
:100E400050FB2E4805F15E06B3B204F15A06B2B269
:100E500005F14906B1B204F11B060090B0B210F0E2
:100E600040FBF8BDF8B505460C46254804F13306AD
:100E7000B3B205F10906B2B2A1B20090A8B210F067
:100E800030FB204804F13306B3B205F19306B2B249
:100E9000A1B28A3E0090B0B210F0F6FA1A4804F1FE
:100EA0003306B3B205F19D06B2B2A1B2093E00907D
:100EB000B0B210F016FBF8BDEC0000202D000000D1
:100EC000204F4E00E43D04084F4646002C430408E2
:100ED0004C0000204E000020500000205200002056
:100EE000540000205600002058000020B4C402081E
:100EF00034E4020874D402085C0703089C1E03084B
:100F00007448040894500408844C0408F8B5054655
:100F10000C46FC4804F13306B3B205F10906B2B23F
:100F2000A1B20090A8B210F0DCFAF74804F1330641
:100F3000B3B205F19306B2B2A1B28A3E0090B0B24C
:100F400010F0A2FAF14804F13306B3B205F19D06A0
:100F5000B2B2A1B2093E0090B0B210F0C2FAF8BD30
:100F6000F8B504460D461646A6B929462046FFF7B1
:100F7000CDFFE74805F12107BBB204F15907BAB22A
:100F800005F11207B9B204F126070090B8B210F0CB
:100F9000A8FA13E029462046FFF764FFDD4805F173
:100FA0002107BBB204F15907BAB205F11207B9B271
:100FB00004F126070090B8B210F093FAF8BDF8B526
:100FC00004460D461646A6B929462046FFF79EFF61
:100FD000D14805F12107BBB204F15907BAB205F1B6
:100FE0001207B9B204F126070090B8B210F079FAEE
:100FF00013E029462046FFF735FFC84805F12107D1
:10100000BBB204F15907BAB205F11207B9B204F143
:1010100026070090B8B210F064FAF8BD10B5044687
:1010200054B901220A211420FFF7C9FF00220A2126
:10103000B420FFF795FF09E000220A211420FFF7F2
:10104000BEFF01220A21B420FFF78AFF10BD38B588
:1010500004460D464FF269300090A81C83B204F19B
:101060003C0082B22946204610F032F84FF2693037
:10107000009005F1340083B204F13C0082B205F126
:10108000320081B2204610F023F84FF26930009010
:1010900005F1320083B2A01C82B22946204610F02E
:1010A00017F84FF2693005F132018BB204F13E01BD
:1010B0008AB2891E009088B2294610F009F838BD1E
:1010C000F8B505460C46964804F13306B3B205F16F
:1010D0001506B2B2A1B20090A8B210F002FA91487F
:1010E00004F13306B3B205F15706B2B2A1B2413EE4
:1010F0000090B0B210F0C8F98B4804F13306B3B2D7
:1011000005F16D06B2B2A1B2153E0090B0B210F07A
:10111000E8F9864804F11C06B3B205F13E06B2B206
:1011200004F11706B1B205F12F060090B0B210F02D
:10113000D8F9F8BDF8B505460C467D4804F13306EC
:10114000B3B205F11506B2B2A1B20090A8B210F088
:10115000C8F9784804F13306B3B205F15706B2B2C4
:10116000A1B2413E0090B0B210F08EF9724804F185
:101170003306B3B205F16D06B2B2A1B2153E0090CE
:10118000B0B210F0AEF96D4804F11F06B3B205F12C
:101190003F06B2B204F10E06B1B205F12E06009080
:1011A000B0B210F09EF9F8BDF8B505460C461646EB
:1011B0001F4621462846FFF7BDFF04F16E0081B2AD
:1011C0002846FFF77DFF04F1370291B205F11402C2
:1011D00090B2FFF73CFF04F1460291B2A5F1200264
:1011E00090B24DF29A6300220096FFF75DFB04F186
:1011F000460291B205F15A0290B24DF29A63002272
:101200000097FFF751FBF8BDF8B504460D464C4872
:1012100005F13B06B3B204F1D306B2B2A9B2009015
:10122000A0B210F05EF9F8BDF8B505460C46454889
:1012300004F15306B3B205F10B06B2B2A1B20090AD
:10124000A8B210F04EF9404804F15306B3B205F1CC
:101250004D06B2B2A1B2413E0090B0B210F014F906
:101260003A4804F15306B3B205F15906B2B2A1B23D
:101270000B3E0090B0B210F034F9F8BDF8B504465A
:101280000D46164629462046FFF7CEFF36B1012E01
:1012900015D0022E24D0032E71D15FE02C4805F129
:1012A0003407BBB204F14707BAB205F12107B9B25E
:1012B00004F118070090B8B210F013F95FE0254868
:1012C00005F13407BBB204F14707BAB205F12107B3
:1012D000B9B204F118070090B8B210F002F94EE06C
:1012E0001D4805F13407BBB204F14707BAB205F156
:1012F0002107B9B204F118070090B8B210F0F1F864
:101300003DE00000ECB803080CC10308FCBC030876
:10131000E430040864370408E4230408642A040859
:101320002CC604080CD804081CCF040874D8040880
:1013300034D9040814EB040824E204087CEB040804
:10134000DC46050804EE0408C4FD0408E4F50408BE
:101350006CFE0408EC0505086C0D0508FE4805F157
:101360004107BBB204F14707BAB205F11907B9B298
:1013700004F114070090B8B210F0B3F800BF00BF3A
:10138000F8BD08B50120FFF7A9FA00225A2140F262
:101390004E20FFF773FF01225A2140F2B220FFF7DF
:1013A0006DFF0222B42140F24E20FFF767FF0322B7
:1013B000B42140F2B220FFF761FF4FF4C37140F255
:1013C0004920FFF721FF4CF218604FF4E1734FF40E
:1013D00010722B210090501E0FF07AFE0020FFF7B4
:1013E0007DFADEA04DF29A6300220A21009040F2BD
:1013F0003F20FFF759FADFA04DF29A6300221E2129
:1014000000904FF42670FFF74FFADDA04DF29A637B
:101410000022322100904FF42670FFF745FADC4895
:101420000078012809D1DBA04DF29A630022462101
:1014300000904FF42670FFF737FA08BD08B54DF25B
:101440009A6040F2DF1340F23E22002100900846ED
:101450000FF03EFEFFF795FFD2480088D249088082
:10146000D2480088D2490880D2480088D2490880F2
:10147000D2480088D2490880D2480088D2490880E2
:10148000D2480088D2490880C1480078D1490880F4
:101490000120FFF723FAD0A3D0A250212320FFF789
:1014A00083FECFA3CFA25021B920FFF77DFECCA3AE
:1014B000CDA2502140F24F10FFF776FECBA3CCA275
:1014C0004FF48C712320FFF76FFEC8A3C9A24FF41D
:1014D0008C71B920FFF768FEC4A3C7A24FF48C71CA
:1014E00040F24F10FFF760FE0120FFF797FDB9496A
:1014F0000878FFF723FBD2214FF4E170FFF78AFC55
:1015000008BD08B54DF29A6040F2DF1340F23E226A
:101510000021009008460FF0DBFDFFF732FFB748CF
:101520000088A1490880B6480088A1490880B548CC
:101530000088A1490880B4480088A1490880B348C0
:101540000088A1490880B2480088A149088000208D
:10155000A04908800120FFF7C1F9A1A3A1A2502151
:101560002320FFF721FE9EA39FA25021B920FFF761
:101570001BFEA8A3A8A2502140F24F10FFF714FEB3
:101580009AA39BA24FF48C712320FFF70DFE97A323
:1015900098A24FF48C71B920FFF706FE93A396A290
:1015A0004FF48C7140F24F10FFF7FEFD0020FFF763
:1015B00035FDD2214FF4E170FFF72CFC08BD10B5CA
:1015C00096480078062806D04DF29A600FF0A1FDEB
:1015D000002093490870934800789349097888421D
:1015E00005D1924800789249097888420CD00020B1
:1015F0008B4908708F4908708A4800788A490870BA
:101600008A4800788A4908700120FFF767F9844802
:10161000007898B901208249087000208649088026
:1016200080480078132802D0142806D102E0FFF782
:1016300068FF02E0FFF702FF00BF00BF7D480078AF
:1016400080B901207B49087076480078132802D0C1
:10165000142806D102E0FFF77FFB02E0FFF744FB0E
:1016600000BF00BF10BD2DE9F047074688469146F0
:101670001D46089E7148A0F80090714800784044CB
:10168000401E83B26F4800783844401E82B2414603
:1016900038460FF0F8FCA6F12000C6B2002420E086
:1016A0006948007838B9694800EB461030F81400F2
:1016B0001FFA80FA0CE064480078012808D106EB94
:1016C0004600634901EB001030F814001FFA80FA5D
:1016D0002888604908805046FEF7CEFFAD1C601C8C
:1016E00084B2574800788442DADBBDE8F0872DE900
:1016F000F84F0546884691461E460A9CB2460CE0C5
:101700002778641C53464A46414628460097FFF70F
:10171000AAFF4C480078284485B220780028EFD1F1
:10172000BDE8F88FF8B505460C464B4804F13B067A
:10173000B3B2EE1DB2B2A1B20090A8B20FF0D1FECA
:10174000464804F13B06B3B205F14706B2B2A1B276
:101750003F3E0090B0B283E0EC1405083230202008
:101760002E20202E20202E2020203A20203A20201B
:101770000000000056463A20202020204872000039
:101780005072313A20202020206261720000000057
:10179000440000205072323A2020202020626172E2
:1017A00000000000420000204C000020400000200B
:1017B0004E000020340000205000002036000020A1
:1017C0005200002038000020540000203200002089
:1017D000560000205800002048000000205354000C
:1017E00025000000434F3200204F3200530000001C
:1017F0002049540020505400205754003E0000203F
:101800003C0000202C0000202E0000203000002092
:101810003A0000204D000000444C00001800002059
:1018200099000020000000209A0000200100002004
:101830009B0000204A0000204800002016000020E5
:10184000730000207200002071000020C4F801081D
:10185000F4E6010814000020EC3605086C3E05088B
:101860000FF012FEFE4804F13B06B3B205F14F063D
:10187000B2B2A1B2F61F0090B0B20FF032FEF8BDC6
:10188000F8B504460D4617461E460020FFF726F819
:1018900029462046FFF746FF05F1170291B204F1F1
:1018A0000A0290B2EF4B1F220096FFF720FFF8BD0F
:1018B000F8B505460C46EC4804F13B06B3B2EE1D04
:1018C000B2B2A1B20090A8B20FF00BFEE5482E38DC
:1018D00004F13B06B3B205F11F06B2B2A1B2173E46
:1018E0000090B0B20FF0D0FDDD4804F13B06B3B27A
:1018F00005F12706B2B2A1B2F61F0090B0B20FF008
:10190000F0FDF8BDF8B504460D46164629462046BA
:10191000FFF7CEFF05F1170291B204F10C0290B26D
:10192000D04B1F220096FFF79EFEF8BD10B5012098
:10193000FEF7D4FF3022A0211420FFF7E3FF31226D
:10194000A0214620FFF7DEFF3222A0217820FFF7FA
:10195000D9FF3322A021AA20FFF7D4FF3422A021EF
:10196000DC20FFF7CFFF3522A0214FF48770FFF76F
:10197000C9FF3622A0214800FFF7C4FF3722A0216B
:101980004FF4B970FFF7BEFF3822A0214FF4D27098
:10199000FFF7B8FF3922A0214FF4EB70FFF7B2FF39
:1019A0004122F0211420FFF7ADFF4222F021462012
:1019B000FFF7A8FF4322F0217820FFF7A3FF44227E
:1019C000F021AA20FFF79EFF4522F021DC20FFF73F
:1019D00099FF4622F0214FF48770FFF793FF4722CB
:1019E000F0214FF4A070FFF78DFF4822F0214FF453
:1019F000B970FFF787FF4922F0214FF4D270FFF74B
:101A000081FF4A22F0214FF4EB70FFF77BFF4B225E
:101A10004FF4A0711420FFF775FF4C224FF4A07112
:101A20004620FFF76FFF4D224FF4A0717820FFF79B
:101A300069FF4E224FF4A071AA20FFF763FF4F22E7
:101A40004FF4A071DC20FFF75DFF502291004FF4AE
:101A50008770FFF757FF51224FF4A0710846FFF738
:101A600051FF52224FF4A0714FF4B970FFF74AFFB3
:101A700053224FF4A0714FF4D270FFF743FF54226A
:101A80004FF4A0714FF4EB70FFF73CFF55224FF479
:101A9000C8711420FFF736FF56224FF4C871462054
:101AA000FFF730FF57224FF4C8717820FFF72AFF65
:101AB00058224FF4C871AA20FFF724FF59224FF48F
:101AC000C871DC20FFF71EFF5A224FF4C8714FF493
:101AD0008770FFF717FF24224FF4C8714FF4A070EE
:101AE000FFF710FF10BD08B50020FEF7F7FE5F48B6
:101AF00000784DF29A63002250210090C120FEF739
:101B0000F3FD5A4840784DF29A630022502100902C
:101B1000CC20FEF7E9FD554880784DF29A6300220B
:101B200050210090D720FEF7DFFD5048C0784DF2DD
:101B30009A63002250210090E220FEF7D5FD08BDF7
:101B400008B5FFF7D0FF4A48008800BB49A3002230
:101B500050214FF4AF70FFF793FE4DF29A608C2343
:101B600040F21222502100904FF4E1700FF0B0FAD1
:101B70004DF29A604FF4E6734FF4FF72A02100908B
:101B800014200FF0A5FA00203C49088023E03848D3
:101B90000088012814D13AA3002250214FF4AF70DD
:101BA000FFF76EFE4DF29A608C2340F21222502114
:101BB00000904FF4E1700FF08BFAFFF7B7FE0AE0E8
:101BC0002B480088022806D12FA3002250214FF471
:101BD000E170FFF755FE08BD08B54DF29A6040F27E
:101BE000DF1340F23E220021009008460FF070FA09
:101BF000FFF7C7FB0020FEF771FE25A04DF29A63A8
:101C00000022322100900846FEF74EFE25A04DF23C
:101C10009A630022502100903220FEF745FE27A053
:101C20004DF29A6300226E2100903220FEF73CFEB6
:101C300026A04DF29A6300226E210090CC20FEF780
:101C400033FE00200A4908800C49088022480078A9
:101C5000064908702048407848701F4880783DE069
:101C6000AC3A05089A3E0508EC360508220000202B
:101C70004C0000204368616E676500004E00002044
:101C800043616E636C65000020536176652000003F
:101C900044455649434520494E464F4D4154494FCE
:101CA0004E0000004D4F44454C204E414D45203ADA
:101CB00020202020202020202000000052455649CE
:101CC00053494F4E204E4F203A0000003230323000
:101CD000313231305F410000E50100208870F74863
:101CE000C078C87008BD10B5F5480078052806D042
:101CF0004DF29A600FF00DFA0020F2490870F24898
:101D00000078F2490978884205D1F1480078F14914
:101D1000097888420CD00020EA490870EE49087022
:101D2000E9480078E9490870E9480078E94908700D
:101D30000120FEF7D3FDE348007868B90120E149AE
:101D400008700020E5490880DF480078122802D199
:101D5000FFF742FF00BF00BFDF48007850B9012005
:101D6000DD490870D8480078122802D1FFF7E8FE54
:101D700000BF00BF10BD2DE9F84304468946154653
:101D80001E4605EB060800270FE018F8010B4DF280
:101D90009A630022494600902046FEF7A5FCD048F1
:101DA0000078204484B2781CC7B20B2FEDDBBDE86D
:101DB000F88310B50246012000E050430B1EA1F14C
:101DC0000104E1B2F9D110BD2DE9F04705460F46F7
:101DD00090461C464FF000091CE02E786D1C252E05
:101DE00016D1A8EB0900401EC1B20A20FFF7E1FF9F
:101DF000B7FBF0F00A21B0FBF1F201FB120A09F186
:101E0000010000F0FF090AF1300004F8010B01E0C5
:101E100004F8016B28780028DFD1BDE8F0872DE9B0
:101E2000F04F8DB081460F4614461D460020FEF748
:101E300055FDAC480078401EC0B2AA49087078B978
:101E400003200870A8480078401CC0B2A64908705A
:101E5000122805D10A20A34908700020A249087061
:101E60004FF000081EE208EB4800C00060301FFA87
:101E700080FB17F8010B0C9017F801AB17F8016BFA
:101E80000121022209F101001FFA80F94DF29A6343
:101E9000CDE900920291002259460F20FEF772FC14
:101EA0000C9801287ED1022214F8010B8FA14DF26B
:101EB0009A63CDE901020091002259462D20FEF7D8
:101EC000B9FC022214F8010B88A14DF29A63CDE906
:101ED00001020091002259464E20FEF7ABFC02227F
:101EE00014F8010B82A14DF29A63CDE90102009131
:101EF000002259466F20FEF79DFC022214F8010BC8
:101F00007CA14DF29A63CDE901020091002259466D
:101F10009020FEF78FFC022214F8010B75A14DF200
:101F20009A63CDE90102009100225946B120FEF7E3
:101F300081FC022214F8010B6FA14DF29A63CDE9E6
:101F40000102009100225946D220FEF773FC0222C2
:101F500015F8010B65A14DF29A63CDE901020091DC
:101F600000225946F520FEF765FC022215F8010B08
:101F70005EA14DF29A63CDE901020091002259461B
:101F80004FF48B70FEF756FC022215F8010B58A196
:101F90004DF29A63CDE9010200910022594640F2C8
:101FA000371000E05EE1FEF745FC022215F8010B58
:101FB00050A14DF29A63CDE90102009100225946E9
:101FC0004FF4AC70FEF736FC022215F8010B49A164
:101FD0004DF29A63CDE9010200910022594640F288
:101FE0007910FEF727FC022215F8010B42A14DF2F1
:101FF0009A63CDE901020091002259464FF4CD7059
:10200000FEF718FCBAF10C0F16D2DFE80AF015063D
:1020100016263646C7D7E7FAF8F7701C81B204AB2C
:10202000012236A0FFF7D0FE2F48037804AA5946B4
:1020300040F2BB10FFF79FFE13E1701C81B204ABAE
:10204000012236A0FFF7C0FE2748037804AA5946AC
:1020500040F2BB10FFF78FFE03E1701C81B204ABAE
:10206000012236A0FFF7B0FE1F48037804AA5946A4
:1020700040F2BB10FFF77FFEF3E0701C81B204ABAF
:10208000012236A0FFF7A0FE1748037804AA59469C
:1020900040F2BB10FFF76FFEE3E0701C81B204ABAF
:1020A000012236A0FFF790FE0F48037804AA594694
:1020B00040F2BB10FFF75FFED3E00000E501002017
:1020C000180000209600002000000020970000204B
:1020D00001000020980000204A0000204800002055
:1020E00072000020910000209000002025252F0084
:1020F0002525200025253A00252500004348414D8F
:102100004245522520444F4F52204F50454E2120EA
:102110002020202020202020000000004348414DA6
:102120004245522520544F502D4845415445522098
:102130004849204552522020000000004348414DAC
:102140004245522520424F542D4845415445522086
:102150004849204552522020000000004348414D8C
:102160004245522520544F502D4845415445522058
:102170004C4F204552522020000000004348414D62
:102180004245522520424F542D4845415445522046
:102190004C4F20455252202000000000701C81B29C
:1021A00004AB0122F4A0FFF70FFEFB48037804AA5A
:1021B000594640F2BB10FFF7DEFD52E0701C81B2C1
:1021C00004AB0122F5A0FFF7FFFDF348037804AA52
:1021D000594640F2BB10FFF7CEFD42E0701C81B2C1
:1021E00004AB0122F5A0FFF7EFFDEB48037804AA4A
:1021F000594640F2BB10FFF7BEFD32E021E010E08F
:10220000FFE7701C81B204AB0122F4A0FFF7DCFDF4
:10221000E148037804AA594640F2BB10FFF7ABFD32
:102220001FE0701C81B204AB0222F4A0FFF7CCFDCA
:10223000D948037804AA594640F2BB10FFF79BFD2A
:102240000FE0701C81B204AB0122F4A0FFF7BCFDCB
:10225000D148037804AA594640F2BB10FFF78BFD22
:1022600000BF1BE0F5A04DF29A6300225946009092
:102270002D20FEF719FBF1A04DF29A63002259467A
:102280000090F520FEF710FBF1A04DF29A630022BA
:102290005946009040F2BB10FEF706FB08F1010022
:1022A0001FFA80F8B8F10C0FFFF6DDAD0DB0BDE8F8
:1022B000F08F10B5AEB0044601A8E8490090098837
:1022C00001EB41014FF6FF7202EA810013AB25AA30
:1022D0000C2117F0D3FCE1490094098801EB41017E
:1022E0004FF6FF7202EA810001AB13AA25A9FFF79E
:1022F00096FD2EB010BDF8B505460C46D84804F141
:102300001B06B3B2EE1CB2B2A1B20090A8B20FF09D
:10231000E8F8D44804F11B06B3B205F17906B2B26D
:10232000A1B22E1D0090B0B20FF0AEF8CE4804F16D
:102330001B06B3B205F17D06B2B2A1B2F61E009043
:10234000B0B20FF0CEF8C94804F11B06B3B205F1E4
:102350004C06B2B2A1B21B3E0090B0B20FF0C1F871
:10236000F8BDF8B505460C46BD4804F11B06B3B2EE
:10237000EE1CB2B2A1B20090A8B20FF0B2F8B94808
:1023800004F11B06B3B205F17906B2B2A1B22E1D5B
:102390000090B0B20FF078F8B34804F11B06B3B266
:1023A00005F17D06B2B2A1B2F61E0090B0B20FF0F8
:1023B00098F8AF4804F11B06B3B205F14C06B2B26F
:1023C000A1B21B3E0090B0B20FF08BF8F8BD08B57B
:1023D0000020FEF783FA00204FF4BD732922462126
:1023E000009028200EF074FE00204FF4BD73F122FF
:1023F00046210090F0200EF06BFE00204FF4BD73DC
:1024000040F2B91246210090501E0EF061FE0020ED
:102410005B2340F226225A21009014200EF058FE31
:102420000020732340F226227221009014200EF027
:102430004FFE00208B2340F226228A210090142098
:102440000EF046FE0020A32340F22622A221009097
:1024500014200EF03DFE0020BB2340F22622BA21BC
:10246000009014200EF034FE0020D32340F22622E8
:10247000D221009014200EF02BFE0020EB2340F21E
:102480002622EA21009014200EF022FE002040F2C5
:10249000031340F22622591E009014200EF018FE5D
:1024A000002040F21B1340F22622591E00901420F7
:1024B0000EF00EFE002040F2331340F22622591E89
:1024C000009014200EF004FE002040F24B1340F266
:1024D0002622591E009014200EF0FAFD002040F232
:1024E000631340F22622591E009014200EF0F0FDD6
:1024F000002040F27B1340F22622591E0090142047
:102500000EF0E6FD5BA04DF29A6300224821009098
:102510000A20FEF7C9F958A04DF29A63002248211B
:1025200000906420FEF7C0F9AFF6AC004DF29A635C
:1025300000224821009040F21D10FEF7B5F951A08D
:102540004DF29A630022482100904FF4E670FEF7A6
:10255000ABF94FF4C8718720FFF703FF4FF4C87140
:102560004FF4A570FFF7C7FE48A300224FF4C871CF
:102570002820FFF785F908BD4348414D42455225C3
:1025800020544F50544D502053454E534F522045E8
:102590005252202000000000900000204348414D8E
:1025A0004245522520424F54544D502053454E53DE
:1025B0004F52204552522020000000004741532531
:1025C00020535550504C5920505245535355524565
:1025D000204552524F522020000000004741532511
:1025E00020534F4C2056414C5645204552524F5295
:1025F000202020202020202000000000564F4320D3
:1026000046494C5445522052454D41494E20444183
:10261000592025252020202000000000504F57453C
:1026200052204F464620535452414E474520455272
:10263000524F522020202020000000002020202087
:1026400020202020202020202020202020000000EA
:1026500020202020202020202020200048000020B2
:10266000445D0208045F0208245E02083C5F020821
:102670005C6502084E6F0000446174652F74696DDB
:1026800065000000416C61726D000000434C4541E3
:102690005200000008B54DF29A6040F2DF1340F29C
:1026A0003E220021009008460EF012FDFEF769FE62
:1026B000FFF78DFE08BD10B5FB480078042806D052
:1026C0004DF29A600EF025FD0020F8490870F84898
:1026D0000078F8490978884205D1F7480078F74929
:1026E000097888420CD00020F0490870F44908703D
:1026F000EF480078EF490870EF480078EF4908701C
:102700000120FEF7EBF8E948007878B90120E749A5
:1027100008700020EB490880EB490870E448007815
:10272000112802D1FFF7B6FF00BF00BFE4480078D0
:1027300078B90120E2490870DD480078112807D1F6
:102740000020E149087008460078FFF7B2FD00BF9D
:102750000CE0D7480078112807D10120DA49087029
:1027600008460078FFF7A5FD00BF00BF10BD2DE9AA
:10277000F04705460E461746984606F1270083B2F5
:1027800005F12F0082B2314628460EF07CFCCF487E
:102790000780CF48A0F8008000241EE0CD4830F824
:1027A00014904FF0000A13E009F4004020B1C7482C
:1027B00000880EF065FC03E0C54800880EF060FC60
:1027C0004FF6FF7000EA49090AF1010000F0FF0A24
:1027D000BAF1100FE8DB601C84B2782CDEDBBDE8B8
:1027E000F0872DE9F84304460D4617469846089EA3
:1027F0004CF2186005F1340C1FFA8CF304F1340C20
:102800001FFA8CF2A5F10C0C1FFA8CF1A4F1040C48
:1028100000901FFA8CF00EF094FE6EB94DF29A60A3
:10282000009005F1270083B204F12F0082B22946FF
:1028300020460EF04DFC06E04DF29A630022294638
:102840002046FFF794FFBDE8F8832DE9F8430446DE
:10285000002500260027A846052C20D2DFE804F03A
:1028600003080E141A00002500260027A84616E0CB
:102870000125002600274FF0000810E00125012661
:1028800000274FF000080AE00125012601274FF03C
:10289000000804E0012501260127A84600BF00BF6B
:1028A0004DF29A6300226421A0200095FFF799FF62
:1028B0004DF29A6300226421DC200096FFF791FF1D
:1028C0004DF29A63002264214FF48C700097FFF759
:1028D00088FF4DF29A63002264214FF4AA70CDF86C
:1028E0000080FFF77EFFBDE8F88308B57A480088CE
:1028F000FFF7ABFF7948008830B1012820D00228CB
:102900003BD0032873D155E075A04DF29A630022A5
:102910001E2100907820FDF7C7FF71A04DF29A6349
:1029200000223C2100907820FDF7BEFFAFF6BC43AB
:1029300000224FF4C8714FF4D270FEF7A1FF56E0A9
:102940006CA04DF29A634FF478421E2100907820DB
:10295000FDF7AAFF6CA04DF29A6300223C21009083
:102960007820FDF7A1FFAFF6E84300224FF4C871CD
:102970004FF4D270FEF784FF39E05EA04DF29A6307
:102980004FF478421E2100907820FDF78DFF63A060
:102990004DF29A6300223C2100907820FDF784FFDD
:1029A000AFF6245300224FF4C8714FF4D270FEF7F3
:1029B00067FF1CE04FA04DF29A634FF478421E214E
:1029C00000907820FDF770FF59A04DF29A63002225
:1029D0003C2100907820FDF767FFAFF65C530022A2
:1029E0004FF4C8714FF4D270FEF74AFF00BF00BF2A
:1029F00008BD2DE9FF4F83B0044689469846DDE9BE
:102A0000117A4FF0000BCDF80880002546E0781BC6
:102A1000401EC1B20A20FDF7AAFE1099B1FBF0F0EA
:102A20000A21B0FBF1F201FB1206BAF1000F0ED140
:102A300006F13000C0B2009049462046029B059A3C
:102A4000FEF711FE3F480078204484B223E0BBF13A
:102A5000000F12D1781EA8420FDD66B92020009029
:102A600049462046029B059AFEF7FDFD3548007851
:102A7000204484B210E04FF0010B06F13000C0B2E8
:102A8000009049462046029B059AFEF7ECFD2D4832
:102A90000078204484B200BF681CC5B2BD42B6DBDA
:102AA00007B0BDE8F08F0000180000209200002061
:102AB000000000209300002001000020940000206E
:102AC0004A00002048000020950000201600002049
:102AD0001400002004E601084C0000204E000020F5
:102AE00020202020202020202020202020202020E6
:102AF0000000000050617373776172642043686165
:102B00006E6765200000000043757272656E742068
:102B100050617373776172640000000020204E657D
:102B20007720506173737761726420200000000089
:102B3000202020436F6D706C65746520202020205C
:102B400000000000720000200EB50020FDF7C6FE58
:102B5000FE4800780B280FD10320FD490988FD4A63
:102B60004DF29A63CDE90021029000225A2140F2F1
:102B7000C910FDF75FFE0EE00320F7490988F54A0A
:102B80004DF29A63CDE90021029000225A2140F2D1
:102B9000C910FDF74FFE0120FDF7A0FE0020022125
:102BA000EE4A1288EE4BCDE9002102900246AF2199
:102BB0005320FFF71EFF0020C2235222C1210090A4
:102BC00051200EF085FA00200221E64A1288E44BDB
:102BD000CDE9002102900246AF2140F22510FFF717
:102BE00008FF0020C2234FF49272C1210090501EB2
:102BF0000EF06EFA00210220DB4A1288D84BCDE994
:102C0000002002910A4640F277115320FFF7F1FEAF
:102C100000204FF4C5735222591E009051200EF02F
:102C200057FA01200221D14A1288CD4BCDE900216B
:102C30000290002240F2771140F22510FFF7D9FEF2
:102C40000EBD3EB50446D4B901200321C34A128803
:102C50004DF29A63CDE9002102904FF47842D221DF
:102C60004FF48C70FDF78EFD4FF47840E6234FF45F
:102C70009C72E4210090901E0EF02AFA0AE0BCA09B
:102C80004DF29A634FF47842D22100904FF48C7049
:102C9000FDF70AFE3EBD38B504460D4629462046DE
:102CA000FEF7E0F8B3A005F1100291B204F11702AB
:102CB000009090B2B24B4FF6FF72FEF718FD38BD90
:102CC00038B504460D4629462046FEF71FF9ADA04B
:102CD00005F1100291B204F11702009090B2AC4BD2
:102CE0001F22FEF704FD38BD38B504460D462946BF
:102CF0002046FEF70BF99FA005F1100291B204F1F6
:102D00001702009090B2A24B1F22FEF7F0FC38BDD4
:102D100038B504460D4629462046FEF7A3F899A08B
:102D200005F1100291B204F11702009090B2944B99
:102D30004FF6FF72FEF7DBFC38BD10B504460020ED
:102D4000FDF7CCFD44B9A0213220FFF7E1FFF021CF
:102D50003220FFF7C9FF07E0A0213220FFF7B0FFC4
:102D6000F0213220FFF797FF10BD08B500208949F8
:102D7000087089490878FFF7E0FF0120FDF7AEFDF4
:102D80008648007830B1012809D0022813D00328E2
:102D900029D11CE080490878FFF753FF23E080A089
:102DA0004DF29A634FF47842E62100904FF48C7014
:102DB000FDF77AFD17E07BA04DF29A634FF478425D
:102DC000E62100904FF48C70FDF76EFD0BE076A0CD
:102DD0004DF29A634FF47842E62100904FF48C70E4
:102DE000FDF762FD00BF00BF70480078401EC0B212
:102DF0006E49087020B914200870002067490870D7
:102E000008BDFEB504460D4616460120FDF766FDD9
:102E10007EB901200822CDE9002005F11E0291B201
:102E200004F12D02029090B2614B0022FFF7E1FD08
:102E30000EE001200622CDE9002005F11E0291B22C
:102E400004F12D02029090B2594B0022FFF7D1FD00
:102E5000FEBD10B541480278AA216420FFF7D1FFDA
:102E600010BD0EB5002002213C4A12883C4BCDE932
:102E7000002102900246DC217D20FFF7BAFD0020F0
:102E8000EF238C22EE2100908B200EF021F90EBD55
:102E90000EB500200221314A1288314BCDE90021C4
:102EA000029002467D216320FFF7A3FD012003214C
:102EB0002C4A12882A4BCDE900210290002240F2D0
:102EC00009115320FFF795FD00200221264A1288A0
:102ED000234BCDE900210290024640F29511632078
:102EE000FFF787FD00204FF4D4737222591E009023
:102EF00071200EF0EDF80EBD0EB501200321174A2A
:102F00001288174BCDE9002102900022DC216D20B0
:102F1000FFF76FFD0020EF238C22EE2100908B2025
:102F20000EF0D6F80EBD0EB5012003210B4A128813
:102F30000B4BCDE9002102900022DC216D20FFF730
:102F400058FD0020EF238C22EE2133E0000000200A
:102F50000E000020980A0008100000204C000020FD
:102F60001A3303084E0000205000002052000020B9
:102F70002D2D2D00496E697469616C697A650000B8
:102F8000B450040843616C6962726174696F6E00C9
:102F90002CC103084A00002026000020B1000020B8
:102FA0002A2A2A004F204B00455252008C00002054
:102FB00070E4020800908B200EF08AF80EBDF8B580
:102FC00005460C46F84804F13B06B3B2EE1DB2B21A
:102FD000A1B20090A8B20EF084FAF44804F13B06C6
:102FE000B3B205F13306B2B2A1B22B3E0090B0B23B
:102FF0000EF04AFAEE4804F13B06B3B205F13B0687
:10300000B2B2A1B2F61F0090B0B20EF06AFAF8BDEB
:10301000F8B504460D46164629462046FFF7CFFF71
:1030200005F1170291B204F1190290B2DF4B2E3371
:103030001F220096FEF717FBF8BD08B50120FDF72B
:103040004DFC4DF29A6040F2DF1340F23E22002127
:10305000009008460EF03CF8FEF793F90020D549A1
:103060000880D54908800120FDF738FCD148008848
:10307000FFF7EBFB3122A0210846FFF7C9FF322200
:10308000A021F020FFF7C4FF3322A0214800FFF762
:10309000BFFF3422F021A020FFF7BAFF3522F02134
:1030A0000846FFF7B5FF3622F0214FF4A070FFF776
:1030B000AFFF37224FF4A071A020FFF7A9FF3822FD
:1030C0004FF4A071F020FFF7A3FF39224FF4A07155
:1030D0000846FFF79DFF43224FF4C871A020FFF779
:1030E00097FF30224FF4C871F020FFF791FF2422A0
:1030F0004FF4C8714FF4A070FFF78AFF08BDF8B510
:1031000005460C46AD4804F13106B3B205F10B0695
:10311000B2B2A1B20090A8B20EF0E3F9A84804F14F
:103120003106B3B205F19206B2B2A1B2863E00906A
:10313000B0B20EF0A9F9A34804F13106B3B205F11B
:103140009E06B2B2A1B20B3E0090B0B20EF0C9F929
:10315000F8BDF8B504460D469B4805F12306B3B209
:1031600004F13B06B2B2A9B20090A0B20EF0B9F9D8
:10317000F8BDF8B504460D46944805F12306B3B2F0
:1031800004F13B06B2B2A9B20090A0B20EF0A9F9C8
:10319000F8BDF8B505460C468D4804F11F06B3B2DC
:1031A000EE1CB2B2A1B20090A8B20EF09AF9894812
:1031B00004F11F06B3B205F18306B2B2A1B22E1D0F
:1031C0000090B0B20EF060F9834804F11F06B3B26C
:1031D00005F18706B2B2A1B2F61E0090B0B20EF0B1
:1031E00080F9F8BDF8B505460C467C4804F11F0689
:1031F000B3B2EE1CB2B2A1B20090A8B20EF071F957
:10320000774804F11F06B3B205F18306B2B2A1B24A
:103210002E1D0090B0B20EF037F9724804F11F066F
:10322000B3B205F18706B2B2A1B2F61E0090B0B2F9
:103230000EF057F9F8BDF8B504460D4616461F4680
:1032400077B929462046FFF7CDFFAA1D91B2A21DEE
:1032500090B2634B0C3300220096FEF748FA0DE063
:1032600029462046FFF795FFAA1D91B2A21D90B2F4
:10327000584B0C3300220096FEF739FAF8BD2DE9C1
:10328000F84F0446002500260027A846A946AA466E
:10329000AB4600200090FDF721FBA4F108000828B0
:1032A0001AD2DFE800F00406080A0D1013160125F3
:1032B00012E0012610E001270EE04FF001080BE0BC
:1032C0004FF0010908E04FF0010A05E04FF0010B53
:1032D00002E00120009000BF00BF2B4642A2052162
:1032E0000846FFF7A8FF334642A205219120FFF7C9
:1032F000A2FF3B4642A2052140F21D10FFF79BFFB3
:10330000434642A2052140F2A910FFF794FF4B4625
:1033100041A228210520FFF78EFF534641A2282114
:103320009120FFF788FF5B4641A2282140F21D1043
:10333000FFF781FF41A2282140F2A910009BFFF76F
:103340007AFF0120FDF7CAFABDE8F88F0EB54DF2FD
:103350009A6040F2DF1340F23E22002100900846BE
:103360000DF0B6FEFEF70DF80020FDF7B7FA36486F
:1033700000780B2878D1FFF782FF344800880D4988
:103380000880334800880C49088032480088324958
:10339000088032480088324908800020FDF79EFAF4
:1033A00003203049098860E0EC3605086C3E0508CA
:1033B000AC3A05084C0000204E0000209C29030870
:1033C000FC3203084C2E0308644C0208843B0208BC
:1033D000AC340508AC360508AC3505086C32050878
:1033E0006C3405086C33050820434F322073657434
:1033F000200000002020204F322073657400000060
:10340000576F726B54696D652000000050726573D0
:103410007375726520000000574554204D6F646538
:10342000200000004368616D626572206E6F0000CD
:1034300045782074656D702063616C00507265730F
:103440007375726532000000000000206A010020E0
:103450006C0100206E01002050000020700100204F
:10346000520000200E0000200CE0F6A24DF29A63FC
:10347000CDE90021029000225A214FF4BE70FDF7E1
:10348000D9F924E00F20FFF7FAFEF2480088F2494C
:103490000880F2480088F2490880F2480088F24922
:1034A0000880F2480088F24908800020FDF716FAEB
:1034B0000320F0490988F0A24DF29A63CDE900217A
:1034C000029000225A214FF4BE70FDF7B3F9DC21BF
:1034D0004FF4D270FDF79EFC0120FDF7FFF9EAA042
:1034E0004DF29A630022502100901E20FDF7DCF976
:1034F00078215020FFF73DFEDC215020FFF729FE08
:1035000078214FF49170FFF734FEDC214FF4917075
:10351000FFF71FFEA0211E20FFF7F1FDDEA0E14B0B
:103520000022AF2100902320FEF7E1F8A021F02037
:10353000FFF7E5FDD8A0DB4B0022AF210090F5207E
:10354000FEF7D5F8D8A04DF29A6300224FF48C71A3
:1035500000901E20FDF7A8F94FF4A0715020FFF74E
:1035600008FE4FF4D2715020FFF7F3FD4FF4A07125
:103570004FF49170FFF7FDFD4FF4D2714FF491704D
:10358000FFF7E7FD4FF4B4711E20FFF7B8FDC2A0AE
:10359000C44B002240F2771100902320FEF7A7F8D9
:1035A0004FF4B471F020FFF7AAFDC3A0BD4B002279
:1035B00040F277110090F520FEF799F80EBD08B59E
:1035C0004DF29A6040F2DF1340F23E22002100905B
:1035D00008460DF07DFDFDF7D4FE0E20FFF74FFEEF
:1035E0009621FA20FDF7A6FD4FF48C71FA20FDF725
:1035F00067FDC8214FF4D270FDF70CFCB14800887C
:10360000954908800020B04908804FF26930D423E2
:103610004FF4AA72D22100904FF482700DF058FD41
:103620004FF269304FF488734FF4AA72991E0090DC
:103630004FF482700DF04CFD4FF269304FF48773F8
:103640004FF48372D2210090901E0DF041FD4FF295
:1036500069304FF487734FF4AB72D2210090901E03
:103660000DF036FD08BDF8B504460D461646AA21F4
:103670006420FDF7A5FB0020FDF730F993A005F1CC
:10368000410291B204F11402009090B2914B0022D9
:10369000FEF72DF8F8BD08B54DF29A6040F2DF1341
:1036A00040F23E220021009008460DF011FDFDF78A
:1036B00068FEAA214FF4BE70FDF7ACFB8648007887
:1036C0006549088008460278AA216420FFF7CBFFED
:1036D0000D20FFF7D4FD08BD08B54DF29A6040F209
:1036E000DF1340F23E220021009008460DF0F0FC6E
:1036F000FDF747FEB421F020FFF73BFDF521F02058
:10370000FFF727FDAA214FF4BE70FDF783FBCD2103
:103710001E20FFF7F4FC714800784F4908800C2008
:10372000FFF7ADFD0120FDF7D9F86DA05D4B00223C
:10373000DC2100902D20FDF7DAFF08BD08B54DF221
:103740009A6040F2DF1340F23E22002100900846CA
:103750000DF0BEFCFDF715FE5521F020FFF709FD29
:103760009621F020FFF7F5FCE121F020FFF701FDA5
:103770004FF49171F020FFF7ECFC40F26D11F02056
:10378000FFF7F7FC4FF4D771F020FFF7E2FCE621DA
:103790004FF4BE70FDF73EFB0A20FFF770FD0120DD
:1037A000FDF79CF86E211E20FFF7A9FC4FA04DF2FB
:1037B0009A630022502100901E20FDF775F84FA05B
:1037C000384B00227D2100902320FDF790FFFA2145
:1037D0001E20FFF794FC4BA04DF29A630022DC21DF
:1037E00000901E20FDF760F849A02E4B002240F209
:1037F000091100902320FDF77AFF4FF4C3711E20BA
:10380000FFF77DFC44A04DF29A6300224FF4B4719F
:1038100000901E20FDF748F838A0224B002240F20D
:10382000951100902320FDF762FF3F4800880A4968
:1038300008803E4800880A4908803D4800880A49B7
:10384000088008BD50726573733120202E2020201F
:1038500062617200720100204C000020740100209F
:103860004E0000207601002050000020780100204A
:103870005200002010000020507265737332202027
:103880002E202020626172004D6178205072657395
:103890007375726500000000202030303062617264
:1038A000000000001A3303084D696E2050726573E2
:1038B000737572650000000020202030307365634E
:1038C0000000000024010020260000204368616DF4
:1038D00062657200B6E40208640000206300002004
:1038E00020574554202D2D2300000000496E697497
:1038F00069616C2054696D65000000002020202063
:1039000030305300506572696F642054696D6500F2
:103910002020203030305300576F726B696E672063
:1039200054696D65000000002C0000202E0000206E
:103930003000002008B54DF29A6040F2DF1340F2EB
:103940003E220021009008460DF0C2FBFDF719FD54
:10395000B421F020FFF70DFCF521F020FFF7F9FB73
:10396000AA214FF4BE70FDF755FACD211E20FFF7B6
:10397000C6FBFDA31F224FF4C8713220FDF780FF64
:10398000FB480088FB4908800920FFF778FCFAA073
:10399000FC4B0022DC2100902D20FDF7A8FE012029
:1039A000FCF79CFF08BD08B54DF29A6040F2DF13AA
:1039B00040F23E220021009008460DF089FBFDF701
:1039C000E0FCB421F020FFF7D4FBF521F020FFF755
:1039D000C0FBAA214FF4BE70FDF71CFACD211E20BA
:1039E000FFF78DFBE0A31F224FF4C8713220FDF7D3
:1039F00047FFE5480088DF4908800820FFF73FFCC3
:103A0000E2A0E04B0022DC2100902D20FDF76FFEAC
:103A10000120FCF763FF08BD10B5DF4800780328DC
:103A200006D04DF29A600DF074FB0020DB4908705F
:103A3000DB480078DB490978884205D1DA4800780C
:103A4000DA49097888420CD00020D4490870D84956
:103A50000870D3480078D3490870D3480078D34918
:103A600008700120FCF73AFFCC48007868BB0120C1
:103A7000CA4908700020CF490880C9480078083832
:103A8000092821D2DFE800F005080B0E1114171ADF
:103A90001D00FFF788FF17E0FFF74CFF14E0FFF76A
:103AA0004DFE11E0FFF752FC0EE0FFF715FE0BE0B4
:103AB000FFF7F1FD08E0FFF782FD05E0FFF746FCA8
:103AC00002E0FFF7BAFA00BF00BFB948007880BB38
:103AD0000120B7490870B24800780838092827D271
:103AE000DFE800F005080B0E14171A1D2300FFF77E
:103AF0001AFA1DE0FFF700FA1AE0FFF7C9F917E01C
:103B0000FFF722F80020AA49087011E0FFF7A9F991
:103B10000EE0FFF79EF90BE0FFF727F908E0FFF74B
:103B200013F80020A249087002E0FEF7DEFE00BF95
:103B300000BF10BDFEB506460D460020FCF7CEFEC8
:103B40000024BFE001210222701C86B204EB440075
:103B5000C000CDE90062029100F15F014DF29A636D
:103B600000222820FCF70EFE15F8340001287DD134
:103B70000221E000401C285C8F4ACDE90020029120
:103B800004EB4400C00000F15F014DF29A63002293
:103B90006420FCF74FFE0221E000801C285C864A6E
:103BA000CDE90020029104EB4400C00000F15F0168
:103BB0004DF29A6300228520FCF73CFE0221E000D2
:103BC000C01C285C7C4A121DCDE90020029104EB48
:103BD0004400C00000F15F014DF29A630022A6206C
:103BE000FCF728FE0221E000001D285C724A083222
:103BF000CDE90020029104EB4400C00000F15F0118
:103C00004DF29A630022C720FCF714FE0221E00067
:103C1000401D285C684A0832CDE90020029104EB7F
:103C20004400C00000F15F014DF29A630022E820D9
:103C3000FCF700FE0221E000801D285C5FA2CDE9B8
:103C40000020029104EB4400C00000F15F014DF23E
:103C50009A63002240F20910FCF7ECFD0121E0001C
:103C6000C01D285C56A2CDE9002000E00DE00291C5
:103C700004EB4400C00000F15F014DF29A630022A2
:103C80004FF4A070FCF7D6FD1AE04F48009004EB0B
:103C90004400C00000F15F014DF29A6300226420ED
:103CA000FCF702FE49A0009004EB4400C00000F1C4
:103CB0005F014DF29A6300224FF4A070FCF7F4FD0F
:103CC000601CC4B20A2CFFF63DAFFEBDF8B5054638
:103CD0000C46404804F15306B3B205F10B06B2B2EC
:103CE000A1B20090A8B20DF0FCFB3B4804F15306D2
:103CF000B3B205F18B06B2B2A1B27F3E0090B0B272
:103D00000DF0C2FB354804F15306B3B205F1970636
:103D1000B2B2A1B20B3E0090B0B20DF0E2FBF8BD22
:103D200038B504460120FCF7D9FDE4B94FF4BE7163
:103D30004FF4C370FFF7CAFF29A0274B3C33002282
:103D40004FF4C37100904FF4CD70FDF7D0FC26A066
:103D5000214B643300224FF4D27100904FF4CD70A8
:103D6000FDF7C5FC53E043E0205465737400000088
:103D70003C0000204C000020204F32202020202535
:103D8000000000001A3303083E000020434F322099
:103D90002020202500000000180000208D000020B9
:103DA000000000208E000020010000208F00002075
:103DB0004A00002048000020EC20000825250000D3
:103DC000254D6F6E746800003C26000820202020DE
:103DD0002020000004EE0408C4FD0408E4F50408F3
:103DE00053746172740000007265706C61636500E9
:103DF0004FF4BE714FF4C370FFF768FFFDA0FE4B98
:103E0000002240F295110090481DFDF770FC38BD6E
:103E100000B597B00020FCF761FD00200121F74AB2
:103E200012784DF29A63CDE90021029002464FF4D8
:103E3000C271B320FCF7A6FC01210220F04A1278DF
:103E40004DF29A63CDE90020029100224FF4C27135
:103E500040F23F10FCF796FC01210422E74800786D
:103E60004FF4347358434DF29A63CDE90121009029
:103E700000224FF4B4714FF4F570FCF783FCE14875
:103E80000078FFF74DFFE049098801EB81014FF60B
:103E9000FF7202EA410003AA0A2115F03AFEDA494C
:103EA000098801EB81014FF6FF7202EA410003A984
:103EB000FFF740FE17B000BD38B50446072C5AD2B4
:103EC000DFE804F004101C2834404C00CF484DF2C9
:103ED0009A6300224FF4AF7100904FF4AA70FCF780
:103EE000E3FC48E0CAA04DF29A6300224FF4AF71A0
:103EF00000904FF4AA70FCF7D7FC3CE0C8A04DF24C
:103F00009A6300224FF4AF7100904FF4AA70FCF74F
:103F1000CBFC30E0C6A04DF29A6300224FF4AF71A3
:103F200000904FF4AA70FCF7BFFC24E0C4A04DF24F
:103F30009A6300224FF4AF7100904FF4AA70FCF71F
:103F4000B3FC18E0C2A04DF29A6300224FF4AF71A7
:103F500000904FF4AA70FCF7A7FC0CE0C0A04DF253
:103F60009A634FF478424FF4AF7100904FF4AA7007
:103F7000FCF79AFC00BF00BF38BDF8B504460D46FB
:103F8000164666B9BA4805F11707BBB204F1170720
:103F9000BAB2A9B20090A0B20DF0A3FA0BE0B548F6
:103FA00005F11707BBB204F11707BAB2A9B2009026
:103FB000A0B20DF096FAF8BD2DE9F04188B00646A2
:103FC0000F4615461C4606EB4600C0005D301FFA42
:103FD00080F80C2D14D2DFE805F0AA061423324134
:103FE000505F6E7D8C9B6B460122611CA248FDF7E1
:103FF000EBFE3B466A4641464FF4C370FDF7BBFEFD
:1040000095E06B460122611C9B482030FDF7DCFEE9
:104010003B466A4641464FF4C370FDF7ACFE86E06E
:104020006B460122611C94484030FDF7CDFE3B46B3
:104030006A4641464FF4C370FDF79DFE77E06B463C
:104040000122611C8C486030FDF7BEFE3B466A468B
:1040500041464FF4C370FDF78EFE68E06B460122C7
:10406000611C85488030FDF7AFFE3B466A464146FD
:104070004FF4C370FDF77FFE59E06B460122611CCF
:104080006248C838FDF7A0FE3B466A4641464FF4F9
:10409000C370FDF770FE4AE06B460122611C5B486D
:1040A000A438FDF791FE3B466A4641464FF4C37083
:1040B000FDF761FE3BE06B460122611C53488438EA
:1040C000FDF782FE3B466A4641464FF4C370FDF75A
:1040D00052FE2CE06B460122611C4C486438FDF70F
:1040E00073FE3B466A4641464FF4C370FDF743FEFC
:1040F0001DE06B460222611C44484438FDF764FE13
:104100003B466A4641464FF4C370FDF734FE0EE06D
:104110006B460122611C3D482438FDF755FE3B46A5
:104120006A4641464FF4C370FDF725FE00BF00BF4D
:1041300008B0BDE8F0812DE9FF5F81460E461446C8
:104140004E480078401EC0B24C49087078B9032030
:1041500008704B480078401CC0B2494908701228CA
:1041600005D10A20454908700020454908700027FC
:1041700042E207EB4700C0005D3080B203900121AE
:10418000042209F101001FFA80F94DF29A63CDE98A
:1041900000920291002204200399FCF7F3FA16F82A
:1041A00001BB16F801AB16F8015B16F8018BBBF1E9
:1041B000010F67D1022214F8010B2F4910394DF27B
:1041C0009A63CDE90102009100223C200399FCF79B
:1041D00031FB022214F8010B274910394DF29A6382
:1041E000CDE90102009100225D200399FCF722FB3A
:1041F000022248E0454E44000AFE04086B000020FD
:1042000070000020450000204800002040260008E3
:10421000203230252050726F6365737320000000D8
:10422000203430252050726F6365737320000000C6
:10423000203630252050726F6365737320000000B4
:10424000203830252050726F6365737320000000A2
:104250003130302520436F6D706C6574650000004F
:10426000202020555342204572726F7220000000BA
:104270000437020884320208FC200008880000206D
:10428000870000203AE014F8010BFE494DF29A63D2
:10429000CDE90102009100227E200399FCF7CAFAC1
:1042A000022214F8010BF749091D4DF29A63CDE97A
:1042B0000102009100229F200399FCF7BBFA022221
:1042C00014F8010BEF49091D4DF29A63CDE9010283
:1042D00000910022C0200399FCF7ACFA022214F8E6
:1042E000010BAFF228514DF29A63CDE90102009122
:1042F0000022E1200399FCF79DFA40E0E2484DF2EC
:104300009A63002200903C200399FCF7CDFADE4826
:104310004DF29A63002200905D200399FCF7C4FAE5
:10432000D9484DF29A63002200907E200399FCF751
:10433000BBFAD5484DF29A63002200909F20039962
:10434000FCF7B2FAD0484DF29A6300220090C020E8
:104350000399FCF7A9FAAFF288504DF29A63002254
:104360000090E1200399FCF79FFA641C641C641C14
:10437000641C641C641C4FF0000A0025A846BAF1B6
:104380000B0F1CD2DFE80AF0061C31587F9AAFD021
:10439000E8FCFB00BC4808384DF29A63002200900C
:1043A0004FF482700399FCF77FFAB8484DF29A6394
:1043B000002200904FF4C3700399FCF775FA18E1DE
:1043C000B3A04DF29A63002200904FF482700399DB
:1043D000FCF76AFAB1A04DF29A63002200904FF404
:1043E000C3700399FCF760FA03E10121681CAFA2D6
:1043F0004DF29A63CDE90020029100224FF48270C1
:104400000399FCF717FAB8F1000F0AD1AAA04DF2F0
:104410009A63002200904FF4C3700399FCF744FAAA
:1044200009E0A9A04DF29A63002200904FF4C370F6
:104430000399FCF739FADCE00121681C9BA24DF2DC
:104440009A63CDE90020029100224FF48270039913
:10445000FCF7F0F9B8F1000F0AD19FA04DF29A6372
:10446000002200904FF4C3700399FCF71DFA09E095
:104470009DA04DF29A63002200904FF4C3700399FF
:10448000FCF712FAB5E001209BA14DF29A630022DD
:10449000CDE9001502904FF482700399FCF7CAF938
:1044A000012098A14DF29A630022CDE900150290F7
:1044B0004FF4C3700399FCF7BDF99AE0012095A170
:1044C0004DF29A630022CDE9001502904FF48270FC
:1044D0000399FCF7AFF92B464246914801783846DC
:1044E000FFF76AFD85E08FA04DF29A6300220090ED
:1044F0004FF482700399FCF7D7F955B98CA04DF2AF
:104500009A63002200904FF4C3700399FCF7CCF932
:1045100009E08BA04DF29A63002200904FF4C37023
:104520000399FCF7C1F964E089A04DF29A63002277
:1045300000904FF482700399FCF7B6F9022087A12E
:104540004DF29A630022CDE9001502904FF4C3703A
:104550000399FCF76FF94CE084A04DF29A630022B6
:1045600000904FF482700399FCF79EF902207BA122
:104570004DF29A630022CDE90015029001E01FE0A0
:1045800005E04FF4C3700399FCF754F931E07A4821
:104590004DF29A63002200904FF482700399FCF769
:1045A00083F90121681C41A24DF29A63CDE90020F4
:1045B000029100224FF4C3700399FCF73BF918E015
:1045C0006EA04DF29A63002200904FF4827003991E
:1045D000FCF76AF90121681C34A24DF29A63CDE917
:1045E0000020029100224FF4C3700399FCF722F9D6
:1045F00000BF00BF781C87B20A2FFFF6BAADBDE836
:10460000FF9F00B599B00020FCF768F95E49098862
:1046100001EB81014FF6FF7202EA41006B460FAADF
:104620000A2115F07DFD5849098801EB81014FF6FB
:10463000FF7202EA41006A460FA9FFF77CFD53486A
:1046400002784FF4B9711420FFF797FC4F48427875
:104650004FF4B9717820FFF790FC4C4882784FF402
:10466000B971DC20FFF789FC4848C2784FF4B97172
:104670004FF4A070FFF781FC444802794FF4CD71EC
:10468000142085E0F020000858260008E42A0008DD
:1046900054656D7065726174757265005365742040
:1046A0004368616E67652020000000004368616D0B
:1046B000626572204E6F2500446F6F72204F7065E7
:1046C0006E20202000000000446F6F7220436C6F4A
:1046D000736520200000000043756C747572654599
:1046E0006D7074790000000043756C7475726553C9
:1046F0007461727400000000564F432046696C7468
:1047000065722000254D6F6E746820537461727459
:1047100000000000416C61726D204C6973742000D0
:10472000870000204D6F6465204368616E676500F7
:104730004F494C204D6F6465202020200000000070
:10474000574554204D6F6465202020200000000054
:10475000434F32204368616E67652000252E252077
:1047600050657263656E7420000000004F32204374
:1047700068616E6765202000842F0008496E6974A7
:1047800069616C697A65200048000020650000209E
:10479000FFF7F3FBFE4842794FF4CD71DC20FFF7C1
:1047A000ECFBFC480078FFF787FB19B000BD10B5A3
:1047B000F94802785E214FF4A570FFF7DEFBF6485A
:1047C00042787C214FF4A570FFF7D7FBF24882783E
:1047D0009A214FF4A570FFF7D0FBEF48C278B821BB
:1047E0004FF4A570FFF7C9FBEB480279D6214FF4CF
:1047F000A570FFF7C2FBE8484279F4214FF4A57099
:10480000FFF7BBFBE44882794FF489714FF4A57040
:10481000FFF7B3FBE048C2794FF498714FF4A570ED
:10482000FFF7ABFBDC48027A4FF4A771081FFFF7D4
:10483000A4FBD948427A4FF4B6714FF4A570FFF744
:104840009CFBD548827A4FF4C5714FF4A570FFF7F1
:1048500094FBD148C27A5E214FF4DC70FFF78DFBE8
:10486000CD48027B7C214FF4DC70FFF786FBCA4801
:10487000427B9A214FF4DC70FFF77FFBC648827BB6
:10488000B8214FF4DC70FFF778FBC348C27BD62118
:104890004FF4DC70FFF771FBBF48027CF4214FF44A
:1048A000DC70FFF76AFBBC48427C4FF489714FF41F
:1048B000DC70FFF762FBB848827C4FF498714FF4CC
:1048C000DC70FFF75AFBB448C27C4FF4A7714FF479
:1048D000DC70FFF752FBB048027D4FF4B6714FF425
:1048E000DC70FFF74AFBAC48427D4FF4C5714FF4D2
:1048F000DC70FFF742FB10BD0EB500200221A74A75
:1049000012784DF29A63CDE9002102900246C62149
:104910003220FBF737FF00200221A14A12784DF226
:104920009A63CDE9002102900246C6218B20FBF755
:1049300029FF002002219B4A12784DF29A63CDE9AB
:10494000002102900246C621E520FBF71BFF002054
:104950000221954A12784DF29A63CDE90021029026
:104960000246C62140F23F10FBF70CFF0020022157
:104970008E4A12784DF29A63CDE9002102900246E8
:10498000C62140F29910FBF7FDFE00200221884A63
:1049900012784DF29A63CDE9002102900246C621B9
:1049A00040F2F310FBF7EEFE0EBD38B505460C469F
:1049B0008048009004F1230083B205F13B0082B2ED
:1049C000A1B228460CF08DFD7B48009004F17900DF
:1049D00083B205F13B0082B204F1560081B2284651
:1049E0000CF07FFD4CF21860009004F1520083B28D
:1049F00005F13B0082B204F1260081B228460CF09A
:104A0000A0FD38BDF8B504460D466C48EE1CB3B2A7
:104A100004F11B06B2B2A9B20090A0B20CF061FD85
:104A2000674805F17906B3B204F11B06B2B22E1D38
:104A3000B1B20090A0B20CF0EAFC62487936B3B291
:104A400004F11B06B2B205F17A06B1B20090A0B231
:104A50000CF047FD5C482E3EB3B204F11B06B2B227
:104A600005F13106B1B20090A0B20CF03AFDF8BDEC
:104A7000F8B504460D465148EE1CB3B204F11B06CE
:104A8000B2B2A9B20090A0B20CF02BFD4C4805F1D7
:104A90007906B3B204F11B06B2B22E1DB1B200907A
:104AA000A0B20CF0B4FC47487936B3B204F11B064F
:104AB000B2B205F17A06B1B20090A0B20CF011FDCD
:104AC00042482E3EB3B204F11B06B2B205F13106E4
:104AD000B1B20090A0B20CF004FDF8BD08B5002002
:104AE000FBF7FCFE00204FF4A573562246210090F0
:104AF00055200CF0EDFA00204FF4A57340F22D1272
:104B000046210090501E0CF0E3FA00205B234FF486
:104B1000FA725A21009014200CF0DAFA0020732364
:104B20004FF4FA727221009014200CF0D1FA002098
:104B30008B234FF4FA728A21009014200CF0C8FAEB
:104B40000020A3234FF4FA72A221009014200CF04D
:104B5000BFFA0020BB234FF4FA72BA210090142050
:104B60000CF0B6FA0020D3234FF4FA72D221009051
:104B700014200CF0ADFA0020EB234FF4FA72EA2176
:104B8000009014200CF0A4FA002040F203131FE060
:104B900065000020E4010020B4030020D3000020C1
:104BA000D5000020D6000020D7000020D80000202B
:104BB000D9000020843B0208644C02087C6B020888
:104BC0003C6D02085C6C0208746D02089473020864
:104BD0004FF4FA72591E009014200CF079FA00205C
:104BE00040F21B134FF4FA72591E009014200CF07F
:104BF0006FFA002040F233134FF4FA72591E0090FE
:104C000014200CF065FA002040F24B134FF4FA72B6
:104C1000591E009014200CF05BFAFEA04DF29A632E
:104C20000022482100901E20FBF73EFEFA484DF27C
:104C30009A630022482100907820FBF735FEF7A008
:104C40004DF29A630022482100904FF4A070FBF7C8
:104C50002BFE5A2140F21220FFF70AFFDC2140F21E
:104C60001220FFF7CFFEEC4B143300224FF4B97142
:104C70000A20FCF705FEECA04DF29A6300224FF4E7
:104C8000C27100905F20FBF70FFEE9A04DF29A631E
:104C900000224FF4CA7100905F20FBF705FE4FF42D
:104CA000AA71A520FFF781FEDB480C304DF29A6314
:104CB00000224FF4C2710090EB20FBF7F5FD4FF49A
:104CC000AA7140F23110FFF770FEDBA04DF29A633B
:104CD00000224FF4B47100904FF4B970FBF7E4FD7B
:104CE0004D204DF29A6300224FF4C2710090BF2014
:104CF000FBF7FAFC48204DF29A6300224FF4C27190
:104D0000009040F25710FBF7EFFCD0480078FFF717
:104D100007F808BDF8B504460D461646A6B929465B
:104D20002046FCF7F3F8CA4805F12307BBB204F1AB
:104D30007F07BAB205F11007B9B204F12607009057
:104D4000B8B20CF0CEFB13E029462046FCF78AF8F7
:104D5000C04805F12307BBB204F17F07BAB205F1E1
:104D60001007B9B204F126070090B8B20CF0B9FBF5
:104D7000F8BDF8B504460D461646A6B929462046A4
:104D8000FCF7C4F8B44805F12307BBB204F17F0770
:104D9000BAB205F11007B9B204F126070090B8B213
:104DA0000CF09FFB13E029462046FCF75BF8AB486C
:104DB00005F12307BBB204F17F07BAB205F1100772
:104DC000B9B204F126070090B8B20CF08AFBF8BD26
:104DD000F8B504460D461646A6B929462046FCF706
:104DE00095F89F4805F12307BBB204F17F07BAB2DB
:104DF00005F11007B9B204F126070090B8B20CF023
:104E000070FB13E029462046FCF72CF8954805F185
:104E10002307BBB204F17F07BAB205F11007B9B29C
:104E200004F126070090B8B20CF05BFBF8BD2DE949
:104E3000F04104460025002600270020FBF74EFD28
:104E4000052C04D0062C04D0072C06D103E0012544
:104E500003E0012601E0012700BF00BF2A460F2121
:104E60000520FFF7B5FF32460F21BE20FFF781FF77
:104E70003A460F2140F27710FFF74CFF0120FBF775
:104E80002DFDBDE8F08108B54DF29A6040F2DF13C8
:104E900040F23E220021009008460CF019F9FCF780
:104EA00070FA0720FFF7C3FF002068490870FFF77A
:104EB00015FE08BD08B50020FBF710FD00204FF4DB
:104EC000A57335224621009034200CF001F9002012
:104ED0004FF4A573FD2246210090FC200CF0F8F859
:104EE00000204FF4A57340F27F1246210090501E1F
:104EF0000CF0EEF800205B234FF4FA725A21009078
:104F00000A200CF0E5F8002073234FF4FA727221A6
:104F100000900A200CF0DCF800208B234FF4FA728A
:104F20008A2100900A200CF0D3F80020A3234FF42C
:104F3000FA72A22100900A200CF0CAF80020BB23CC
:104F40004FF4FA72BA2100900A200CF0C1F8002048
:104F5000D3234FF4FA72D22100900A200CF0B8F853
:104F60000020EB234FF4FA72EA2100900A200CF0A3
:104F7000AFF8002040F203134FF4FA72591E00906C
:104F80000A200CF0A5F8002040F21B134FF4FA722F
:104F9000591E00900A200CF09BF8002040F23313B9
:104FA0004FF4FA72591E00900A200CF091F800207C
:104FB00040F24B134FF4FA72591E00900A200CF085
:104FC00087F814A04DF29A630022482100900F2028
:104FD000FBF76AFC10484DF29A63002248210090CA
:104FE0006420FBF761FC20A04DF29A630022482167
:104FF00000904FF49B70FBF757FC1DA04DF29A6395
:105000000022482100904FF4D270FBF74DFC5A214A
:1050100032E000004E6F2E007826000856616C6961
:10502000642074696D65000056616C69640000005D
:105030002074696D6500000045787069726174695B
:105040006F6E3A202020204800000000450000201C
:1050500094DD03081C6D040884CF03080C5F04086A
:1050600074C10308FC5004084974656D0000000019
:105070005369676E616C000040F21220FFF7F8FC84
:10508000DC2140F21220FFF7BDFC08BD08B54DF24F
:105090009A6040F2DF1340F23E2200210090084661
:1050A0000CF016F8FCF76DF90120FE490870487005
:1050B0008870C870087148710620FFF7B8FEFFF7C6
:1050C000F9FE0020FBF70AFC0020F7490870F7A062
:1050D0004DF29A63002240F2771100903220FBF7E4
:1050E000E3FBF4484DF29A63002240F277110090FE
:1050F0009620FBF7D9FBF0A04DF29A63002240F214
:1051000077110090FA20FBF7CFFBECA04DF29A63E9
:10511000002240F2771100904FF4AF70FBF7C4FB10
:10512000E7A04DF29A63002240F29F1100903220D6
:10513000FBF7BAFBE5A04DF29A634FF4784240F2D8
:105140009F110090FA20FBF7AFFBE1A31F224FF461
:10515000BE714FF4C370FCF793FBDFA31F224FF423
:10516000BE714FF4F570FCF78BFB08BD08B500204D
:10517000FBF7B4FB00204FF4D27356224621009077
:1051800055200BF0A5FF00204FF4D27340F22D12F2
:1051900046210090501E0BF09BFF00204FF4D2736D
:1051A00040F29B1246210090501E0BF091FF002010
:1051B0005B234FF4FA725A21009014200BF088FF01
:1051C000002079234FF4FA727821009014200BF01C
:1051D0007FFF002097234FF4FA729621009014204D
:1051E0000BF076FF0020B5234FF4FA72B421009043
:1051F00014200BF06DFF0020D3234FF4FA72D2215C
:10520000009014200BF064FF0020F1234FF4FA7299
:10521000F021009014200BF05BFF002040F20F13F0
:105220004FF4FA72591E009014200BF051FF002029
:1052300040F22D134FF4FA72591E009014200BF017
:1052400047FF002040F24B134FF4FA72591E0090B2
:1052500014200BF03DFF002040F269134FF4FA7266
:10526000591E009014200BF033FF002040F28713EA
:105270004FF4FA72591E009014200BF029FF002001
:1052800040F2A5134FF4FA72591E009014200BF04F
:105290001FFFAFF280204DF29A6300224821009058
:1052A0001E20FBF701FB8EA04DF29A6300224821DD
:1052B00000907820FBF7F8FA8BA04DF29A63002259
:1052C000482100904FF49B70FBF7EEFA88A04DF256
:1052D0009A630022482100904FF4D270FBF7E4FA61
:1052E00085A04DF29A630022642100901E20FBF7F6
:1052F000DBFA82A04DF29A630022822100901E20E8
:10530000FBF7D2FA7EA04DF29A630022A021009012
:105310001E20FBF7C9FA7BA04DF29A630022BE2142
:1053200000901E20FBF7C0FA77A04DF29A6300228E
:10533000DC2100901E20FBF7B7FA74A04DF29A63AF
:105340000022FA2100901E20FBF7AEFA70A04DF269
:105350009A6300224FF48C7100901E20FBF7A4FA90
:105360006CA04DF29A6300224FF49B7100901E20B6
:10537000FBF79AFA68A04DF29A6300224FF4AA71E3
:1053800000901E20FBF790FA64A04DF29A63002271
:105390004FF4B97100901E20FBF786FA60A04DF221
:1053A0009A6300224FF4C87100901E20FBF77CFA2C
:1053B0005CA04DF29A630022642100900846FBF73E
:1053C00073FA5BA04DF29A63002282210090642060
:1053D000FBF76AFA5AA04DF29A630022A0210090CE
:1053E0006420FBF761FA5AA04DF29A630022BE21B5
:1053F00000906420FBF758FA59A04DF29A630022FE
:10540000DC2100906420FBF74FFA59A04DF29A631B
:105410000022FA2100906420FBF746FA58A04DF2D2
:105420009A6300224FF48C7100906420FBF73CFAE1
:1054300057A04DF29A6300224FF49B7100906420B4
:10544000FBF732FA55A04DF29A6300224FF4AA718D
:1054500000906420FBF728FA53A04DF29A630022D3
:105460004FF4B97100906420FBF71EFA51A04DF281
:105470009A6300224FF4C87100906420FBF714FA7D
:1054800008BD08B54DF29A6040F2DF1340F23E22AB
:105490000021009008460BF01BFEFBF772FF052071
:1054A0008CE0000065000020E401002054656D7070
:1054B00000000000842600084C6F6700564F430030
:1054C00054656D70204C6F6700000000416C6C00EB
:1054D000446F776E00000000436C6561720000004D
:1054E0004974656D73000000536F756E64000000B1
:1054F000446973706C617900203100002032000033
:105500002033000020340000203500002036000049
:105510002037000020380000203900003130000022
:1055200031310000444F4F52204F50454E00000093
:10553000544F5020484947482054454D50000000E2
:10554000424F5420484947482054454D50000000E0
:10555000544F50204C4F572054454D5000000000F0
:10556000424F54204C4F572054454D5000000000EE
:10557000544F502054454D502053454E534F5200E8
:10558000424F542054454D502053454E534F5200E6
:1055900047415320535550504C590000534F4C2015
:1055A00056414C5645000000564F432046494C5446
:1055B00045520000544F554348000000FFF737FCA8
:1055C000FFF7D4FD08BDF8B505460C46FE4804F1CA
:1055D0002306B3B205F14A06B2B2A1B23B3E009037
:1055E000B0B20BF07EFFF94804F17906B3B205F1D1
:1055F0004A06B2B204F15606B1B205F10F060090A8
:10560000B0B20BF06EFF4CF21860009004F1520043
:1056100083B205F15A0082B204F1260081B2284615
:105620000BF08FFFF8BD0EB54DF29A6040F2DF131C
:1056300040F23E220021009008460BF049FDFBF7A6
:10564000A0FEE3480078E3490870E3480078E349A6
:105650000870E3480078E3490870E3480078E349BC
:105660000870E3480078E3490870E3480078E349AC
:105670000870E3480078E349087096210520FFF799
:10568000A2FF96217D20FFF790F99621D720FFF702
:105690008CF9962140F23110FFF787F9962140F2FC
:1056A0008B10FFF782F9962140F2E510FFF77DF9A4
:1056B0004FF496714FF4D270FBF7ACFB0120FBF76F
:1056C0000DF9D1A04DF29A630022C621009064200A
:1056D000FBF7EAF8CDA04DF29A630022C6210090B4
:1056E000BE20FBF7E1F8CAA04DF29A630022C62162
:1056F00000904FF48C70FBF7D7F8AFF244104DF2E6
:105700009A630022C62100904FF4B970FBF7CCF8E1
:10571000BEA04DF29A630022C62100904FF4E670BD
:10572000FBF7C2F8BBA04DF29A630022C62100909D
:1057300040F22620FBF7B8F8B7A04DF29A6300229A
:10574000C62100901220FBF7AFF800200221A14AE9
:1057500012784DF29A63CDE9002102900246C621EB
:105760003220FBF70FF8002002219E4A12784DF2FA
:105770009A63CDE9002102900246C6218B20FBF7F7
:1057800001F800210220994A12784DF29A63CDE97E
:10579000002002910A46C621E520FAF7F3FF002017
:1057A0000221944A12784DF29A63CDE900210290C9
:1057B0000246C62140F23F10FAF7E4FF0021022022
:1057C0008E4A12784DF29A63CDE9002002910A4682
:1057D000C62140F29910FAF7D5FF00200221894A2C
:1057E00012784DF29A63CDE9002102900246C6215B
:1057F00040F2F310FAF7C6FF0EBD10B587480078E7
:10580000022806D04DF29A600BF083FC00208449F8
:1058100008708448007884490978884205D1834813
:1058200000788349097888420CD000207C490870B0
:10583000804908707B4800787B4908707B48007875
:105840007B4908700120FBF749F875480078E8B9F2
:10585000012073490870002077490880714800785A
:10586000042806D0052807D0062808D007280CD120
:1058700008E0FFF7D8FE08E0FFF703FE05E0FFF7BA
:1058800005FC02E0FFF7FFFA00BF00BF694800789F
:10589000E8B901206749087062480078042806D0FA
:1058A000052807D0062808D007280FD10BE0FFF7FE
:1058B00023F80BE0FEF77BFF08E0FEF7A2FE0020D6
:1058C0005C49087002E0FEF7A3FA00BF00BF10BDFC
:1058D000F8B505460C46594804F13B06B3B2EE1D37
:1058E000B2B2A1B20090A8B20BF0FBFD544804F193
:1058F0003B06B3B205F13306B2B2A1B22B3E009023
:10590000B0B20BF0C1FD4F4804F13B06B3B205F154
:105910003B06B2B2A1B2F61F0090B0B20BF0E1FDAF
:10592000F8BDF8B504460D4616461F467FB9294610
:105930002046FDF744FB05F1170291B204F119026C
:1059400090B2414B00220096FBF78DFE0FE02946F6
:105950002046FFF7BDFF05F1170291B204F11902CD
:1059600090B2374B2E3300220096FBF77CFEF8BD39
:105970001CB504460020009001900120FAF7AEFF0C
:1059800001200DF804009DF8003031224FF4CD7154
:105990000A20FFF7C6FF9DF8013032224FF4CD7187
:1059A0005020FFF7BEFF9DF8023033224FF4CD7137
:1059B0009620FFF7B6FF9DF8033034224FF4CD71E7
:1059C000DC20FFF7AEFF41E0843B0208644C020894
:1059D000CC000020D3000020CD000020D400002007
:1059E000CE000020D5000020CF000020D6000020EF
:1059F000D0000020D7000020D1000020D8000020D7
:105A0000D2000020D9000020590000004D00000005
:105A10004400000053000000323000001800002055
:105A200089000020000000208A00002001000020E2
:105A30008B0000204A00002048000020E43E0508BA
:105A400064460508A44205089A3E05089DF80430FE
:105A500035224FF4CD714FF49170FFF762FF9DF83E
:105A6000053036224FF4CD714FF4B470FFF759FF73
:105A7000F7480078012800D11CBD9DF80630372278
:105A80004FF4CD714FF4D770FFF74BFF9DF80730FF
:105A900038224FF4CD714FF4FA70FFF742FF00BF88
:105AA000EAE72DE9FE4F05460C4616461F464FF025
:105AB0000008E0E008EB4800C0005D301FFA80F904
:105AC00014F801AB641C01210422681C85B24DF25C
:105AD0009A63CDE900520291002249461920FAF753
